:020000040800F2
:10000000C80700204502000805210008811D0008DE
:10001000012100084D06000895220008000000009C
:10002000000000000000000000000000F1210008B6
:10003000510600080000000009210008F521000811
:100040005F0200085F0200085F0200085F0200080C
:100050005F0200085F0200085F0200085F020008FC
:100060005F0200085F0200085F0200085F020008EC
:100070005F0200085F0200085F0200085F020008DC
:100080005F0200085F0200085F0200080000000035
:1000900000000000000000000000000055060008FD
:1000A0005F0200085F0200085F0200085F020008AC
:1000B0005F0200085F0200085F0200085F0200089C
:1000C0005F0200085F0200085F0200085F0200088C
:1000D0005F0200085F0200085F02000800000000E5
:1000E0005F0200085F0200085F02000800000000D5
:1000F0000000000000000000000000005F02000897
:10010000000000005F0200085F0200085F020008B4
:1001100000000000000000000000000000000000DF
:100120005F0200085F0200085F0200085F0200082B
:100130005F02000800000000000000000000000056
:100140000000000000000000000000005F02000846
:100150005F0200085F0200085F0200085F020008FB
:100160005F0200085F0200080000000000000000BD
:10017000000000000000000000000000000000007F
:10018000000000005F020008000000000000000006
:100190005F02000800F002F800F044F80AA090E8BE
:1001A000000C82448344AAF10107DA4501D100F032
:1001B00039F8AFF2090EBAE80F0013F0010F18BFBB
:1001C000FB1A43F0010318472435000044350000B2
:1001D000103A24BF78C878C1FAD8520724BF30C873
:1001E00030C144BF04680C60704700000023002445
:1001F00000250026103A28BF78C1FBD8520728BF37
:1002000030C148BF0B607047642900F0FB8075293E
:1002100000F0F880002070471FB503F0E5F91FBD1E
:1002200010B510BD00F0D7F91146FFF7F5FF02F049
:1002300033F800F0F5F903B4FFF7F2FF03BC00F068
:10024000FDF900000948804709480047FEE7FEE73E
:10025000FEE7FEE7FEE7FEE7FEE7FEE7FEE7FEE776
:1002600004480549054A064B7047000081220008F2
:1002700095010008C8010020C8070020C80300201D
:10028000C803002053EA020C00F069802DE9F04B0E
:100290004FF00006002B1FBFB3FA83F503FA05F4F5
:1002A00024FA05F65E4012BF1643B2FA82F502FA4E
:1002B00005F4C5F120051EBF22FA05FC44EA0C0432
:1002C000203556EA044C4FEA144418BF641C4FF022
:1002D00000084FF00009904271EB030C39D300295C
:1002E00019BFB1FA81F701FA07F6B0FA80F700FA00
:1002F00007F6C7F120071EBF20FA07FC46EA0C06E6
:100300002037B6FBF4FCA7EB0507103F07F01F0BE7
:10031000CBF120062CFA06F60CFA0BFB44BFB346D1
:100320000026202FA4BF5E464FF0000B5BEA060CB0
:1003300008BF4FF0010B19EB0B0948EB0608ABFBAC
:10034000027C06FB02CC0BFB03CCC01B71EB0C0147
:10035000C1E70B46024641464846BDE8F08B13B55F
:10036000084318BF4FF0FF300146AFF30080BDE8EF
:100370001C4070470FB41CB5074B06AA7B44694666
:100380000090059800F00FF90020694600F01EF972
:100390001CBC5DF814FB00004D0200002DE9F0418B
:1003A0000E460446002020622046E168884730B3AC
:1003B000252805D0D4E901219047206A401CF2E7A6
:1003C000E168204600278847050018D0A5F14100C4
:1003D000192802D820354FF40067324629462046B6
:1003E0002760FFF711FF40B1012804D0F61D26F069
:1003F00007060836D8E7361DD6E72846DAE7206A2A
:10040000BDE8F0812DE9F041064600241068752909
:10041000314616A510D0AFF30080002802DA404222
:1004200013A507E031688A0701D512A502E0490744
:1004300004D511A5012401E0AFF3008000210A22B8
:1004400006F1240709E0B0FBF2FCB0FBF2F302FB7B
:100450001C00303078541846491C0028F3D123463C
:100460002A463046BDE8F04100F03EB800000000EA
:100470002D0000002B00000020000000421E12F89A
:10048000013F002BFBD111F8013B002B02F8013B8F
:10049000F9D170474FF0000200B5134694469646D6
:1004A000203922BFA0E80C50A0E80C50B1F1200187
:1004B000BFF4F7AF090728BFA0E80C5048BF0CC035
:1004C0005DF804EB890028BF40F8042B08BF704793
:1004D00048BF20F8022B11F0804F18BF00F8012B05
:1004E00070477047704770472DE9F0470D469946B1
:1004F0009246044600F124080168880604D5E069A4
:1005000021F01001216000E00120A84201DD471B1D
:1005100000E00027A1697A1902EB0900081AA0611E
:100520002078C00602D42046AFF30080002608E001
:10053000D4E901211AF806009047206A401C761C75
:1005400020624E45F4DB2078C0060AD52046AFF382
:10055000008006E0D4E9012130209047206A401C49
:100560002062381EA7F10107F4DC07E0D4E901217D
:1005700018F805009047206A401C2062281EA5F14B
:100580000105F3DC2046AFF300802078000602D599
:100590000220BDE8F0870120FBE7000001694A1C4A
:1005A00002610878704700B58FB0CDE901310021B4
:1005B000059105497944CDE9031011466846FFF7D6
:1005C000EDFE0FB000BD0000E5FFFFFF0A6802F876
:1005D000010B0A607047754600F02CF8AE46050026
:1005E0006946534620F00700854618B020B5FFF74E
:1005F00037FEBDE820404FF000064FF000074FF0F7
:1006000000084FF0000BAC46ACE8C009ACE8C009EC
:10061000ACE8C009ACE8C00921F007018D4670477D
:1006200010B50446AFF300802046BDE81040FFF748
:1006300002BE000000487047100000200149182049
:10064000ABBEFEE72600020070470000FEE7000098
:1006500070470000B0B543F61440C4F201000168D1
:10066000090658BFB0BD2424802140F27005C4F2B1
:1006700000040160C2F2000520682969401A68611F
:10068000206818B120682861B0BD00BF40F200406A
:10069000C4F202004FF4807100F09EFA20682861D5
:1006A000B0BD000070B581B00022009290F83C20EF
:1006B000012A03D10221084601B070BD0E68012253
:1006C0000A2E80F83C2009D3B2B25200D0F800E0E4
:1006D00012FA86F21E3A0EF10C0305E0D0F800E0A3
:1006E00006EB46020EF110034FF0070C1D680CFAE2
:1006F00002F4A5431D608D681C6805FA02F22243CE
:100700001A60496806290FD801EB81014A1F71461A
:100710001F2351F8345F934025EA03030B60B3B203
:1007200003FA02F214E000BF01EB81030C29B2B21C
:1007300004D8714651F8304F233B03E0714651F81D
:100740002C4F413B1F259D4024EA05059A400D6032
:100750000B6842F2043CC4F2010C1A43ACF541733D
:100760009E450A603BD1122E06D1DCF8001041F400
:100770008001CCF8001032E026F0010110292ED1C2
:10078000DCF80010102E41F40001CCF8001026D146
:1007900040F20801C2F2000109684DF68362C4F21A
:1007A0001B32A1FB0212910C01EB81014900009167
:1007B0000099A1B1009901390091009979B100998E
:1007C00001390091009951B10099013900910099C6
:1007D00029B100990139009100990029EAD100213D
:1007E00080F83C10084601B070BD00000068C06C85
:1007F0007047000070B5044600680D4682685205D7
:1008000044BF80685FEAC05038D400F0F3F9216833
:100810000A68920749D40646681C3CD0DDB90868CE
:10082000800721D5086880073FD4086880071BD55A
:100830000868800739D40868800715D508688007DC
:1008400033D4086880070FD508688007E7D52CE007
:100850000868800729D400F0CDF9801B2168A842E0
:10086000F6D908688007F3D4206C40F004002064B7
:10087000002084F83C00032070BD00BF206C40F0D5
:1008800020002064002084F83C00012070BD00BFDF
:100890000868800709D40868800706D408688007BC
:1008A0005CBF08685FEA8070F2D56FF012000860E4
:1008B000206C40F400702064886810F0405F01D123
:1008C000207E08B1002070BDC86A10F4700F02D0FD
:1008D00088684005F6D4206C20F480702064206C79
:1008E000C004EFD4206C40F001002064002070BDF3
:1008F00010B581B00021009190F83C10012903D17E
:10090000022001B010BD00BF0468012180F83C1036
:10091000214651F8083FDB0729D10B684DF6836269
:1009200043F001030B6040F20803C2F200031B68AE
:10093000C4F21B32A3FB02239A0C02EB4202009288
:10094000009AA2B1009A013A0092009A7AB1009AF4
:10095000013A0092009A52B1009A013A0092009A2C
:100960002AB1009A013A0092009A002AEAD10A6854
:10097000036CD2070AD143F01001016400F1440175
:1009800001200A681043086034E000BF40F20172A1
:1009900023EA020202F5807202646268520504D5FD
:1009A000026C012363F30D320264026C4FF0000C01
:1009B0000023D20444BF426C22F0060342F2000E30
:1009C000436480F83CC06FF02200C4F2010E206046
:1009D000DEF80403C00609D074450BD1DEF8080028
:1009E00010F0405F06D14FF08040CAE7086810F071
:1009F000405FF8D0002001B010BD0000B0B5044643
:100A000000F0F8F8054640F20000C2F2000000785D
:100A1000611C18BF044400BF00F0ECF8401BA0426A
:100A2000FAD3B0BD2DE9F04F82B000F13E4241F261
:100A3000000502F1FF77C4F20205072243F6004EDB
:100A40004FEAB726A84208BF0422C4F2010E042EC2
:100A500038BF4FEAB7220125002600274FF00008D3
:100A6000009208E008F101080437B8F1100F06F110
:100A7000020600F0A7800C6805FA08F914EA090FCD
:100A8000F0D0D1F804B003220BF0030CACF1010458
:100A9000B240012C6FEA020A10D88268CC6802EAE0
:100AA0000A02B440224382604268CBF3001422EA77
:100AB000090204FA08F42243426005E0BCF1030F86
:100AC00002D14FF0030C20E0C2688C6802EA0A02EF
:100AD000B4402243BCF1020FC26016D16FF0030292
:100AE00002EA58020244D2F820C007F01C050F2386
:100AF0000C69AB402CEA030304FA05F52B4313629F
:100B0000D1F804B001250BF0030C02680CFA06F3CF
:100B100002EA0A021A431BF4403F0260A2D00022FC
:100B200043F644030192C4F202031A684FF6084CDC
:100B300042F480421A601A68CFF6FF7C02F48042C9
:100B40000192019A28F00302724452F80C3007F027
:100B50000C050F24AC40A343009C04FA05F52B437D
:100B600042F80C30DEF808204B6842EA090543F6EB
:100B70000C4CDC0258BF22EA0905CEF80850C4F23A
:100B8000010CDCF800209C0242EA090558BF22EA69
:100B90000905CCF80050DEF804209C0342EA090560
:100BA00058BF22EA0905CEF80450DEF80020DB0326
:100BB00042EA090558BF22EA0905CEF8005001258E
:100BC00050E700BF02B0BDE8F08F000000690840A8
:100BD00018BF012070470000426902EA01039143F7
:100BE00041EA034181617047002A08BF090481611D
:100BF0007047000040F2C010C2F200000068704769
:100C000040F2000040F2C011C2F20000C2F2000146
:100C100000780A68104408607047000080B543F609
:100C20000040C4F20200016841F4007101600168F3
:100C300041F480610160016841F48071016003202A
:100C400000F088F80F2000F005F800F027F80020E9
:100C500080BD000070B540F20006C2F2000640F20E
:100C600008013278C2F200014FF47A730968B3FBCD
:100C7000F2F20446B1FBF2F1084600F05BFF0F2CE4
:100C80004FF0010508D838B94FF0FF302146002257
:100C9000002500F033F87460284670BD82B0002053
:100CA00043F640010190C4F202014A6842F48042D6
:100CB0004A604A6802F480420192019A00900868F2
:100CC00040F080500860086800F080500090009864
:100CD00002B07047002848BF7047C1B200F01F0043
:100CE000012202FA00F04EF20012CEF2000242EAB5
:100CF000D10121F0030108607047000010B54EF6E5
:100D00000C5CCEF2000CDCF80030C3F3022E8EF047
:100D10000704042C28BF0424BEF103034FF0FF3E58
:100D20000EFA04F438BF0023A14399400EFA03F3EE
:100D30009A43114300F00F0200F160430901043AA5
:100D400003F564436244002848BF02F10C031970A4
:100D500010BD00004EF60C51CEF200010A684FF6AD
:100D6000FF031A4060F30A2242F0806040F0FD70F9
:100D7000086070472DE9F041002800F08B8043F6B1
:100D80000808C4F202080446D8F8F8030D4600F03B
:100D90000700884207D288F8F853D8F8F80300F023
:100DA0000700A84276D12068810717D5410705D5ED
:100DB000D8F8001041F4E051C8F80010010705D53B
:100DC000D8F8001041F46041C8F80010D8F80010BD
:100DD000A26821F0F0011143C8F80010C0073FD10C
:100DE000D8F8F80300F00700A84207D988F8F853AC
:100DF000D8F8F80300F00700A8424BD1206841075B
:100E000007D5D8F80010E26821F4E0511143C8F882
:100E10000010000708D5D8F80000216920F46040D0
:100E200040EAC100C8F8000000F054F8D8F80010FB
:100E300043F20262C1F30311C0F60002515C40F2BA
:100E4000080220FA01F140F20400C2F2000000683A
:100E5000C2F200021160FFF7FDFE0020BDE8F08144
:100E60006068811E022907D258F8081C89015CBFFE
:100E70000120BDE8F08111E0012807D158F8081CD5
:100E800089035CBF0120BDE8F08107E058F8081C29
:100E9000890703D40120BDE8F08100BFD8F8001015
:100EA00021F003010843C8F80000FFF7A3FE06463F
:100EB00041F28837D8F80000616800F00C00B0EB10
:100EC000810F8DD0FFF796FE801BB842F2D9032028
:100ED000BDE8F08110B543F60404C4F20204606872
:100EE00000F00C0008280BD0042819BF42F2004083
:100EF000C0F2F40047F64000C0F27D1010BD00BF04
:100F0000206821682368490247F64001C0F27D113C
:100F100000F03F02C3F388105CBF42F20041C0F210
:100F2000F401A1FB00010023FFF7ACF921680222C4
:100F3000C1F3014102EB4101B0FBF1F010BD000033
:100F40002DE9F04182B0002868D00446007843F6CD
:100F50000006C007C4F202060BD0B06800F00C0017
:100F6000042840F09F803068800302D56068002824
:100F700054D0207880071AD5B06810F00C0F09D033
:100F8000B06800F00C00082840F0A68070684002AD
:100F900000F1A2803068800702D5E06801283DD1C9
:100FA0003068216920F0F80040EAC1003060207804
:100FB000000737D4207840074CD4A56955B3B068F2
:100FC00000F00C00082840F0BB80012D26D070688E
:100FD000E16900F480028A4220D1216A00F03F02D8
:100FE0008A421BD147F6C071626A0140B1EB821F91
:100FF00014D1A16A4FF6FF73C903994300F440323C
:10100000A1F580318A4209D1E16A00F07060B0EB4D
:10101000016F03D1002002B0BDE8F081012002B0D1
:10102000BDE8F0816069002840F20000C4F247206A
:1010300076D00121C0F8801EFFF7DCFD054600BF19
:10104000706F8007B6D4FFF7D5FD401B0228F7D993
:10105000DDE000BF306C10F080580AD10020019014
:10106000306C40F080503064306C00F08050019063
:10107000019847F20007C4F200073868C00541D460
:10108000386840F480703860FFF7B4FD054600BF53
:101090003868C00536D4FFF7ADFD401B0228F7D9EC
:1010A000B5E000BFB06800F00C00082803D17068FC
:1010B00040023FF558AF6068B0F5803F07D0B0F50B
:1010C000A02F40F08D80306840F480203060306880
:1010D00040F4803030608DE0E068002852D000207D
:1010E000C4F2472001210160FFF784FD054600BFDF
:1010F000306880073FF554AFFFF77CFD401B0228A6
:10110000F6D984E0A068012805D005284ED1306FBB
:1011100040F004003067306F40F0010030674FE06E
:101120000021C0F8801EFFF765FD0546706F80073F
:101130007FF540AFFFF75EFD401B0228F6D966E061
:101140000027C4F2472700203866FFF753FD022D21
:1011500005460BD1306880015ED5FFF74BFD401B83
:1011600002284FF00300F5D955E700BF3068800131
:101170007FF550AFFFF73EFD401B02284FF0030004
:10118000F4D948E70020C4F2472000210160FFF7AE
:1011900031FD0546306880077FF509AFFFF72AFD6E
:1011A000401B02284FF00300F4D934E7316F0028C8
:1011B00021F001013167316F21F0040131674DD019
:1011C000FFF718FD054641F2883700BF306F8007F2
:1011D00056D4FFF70FFD401BB842F7D917E000BF08
:1011E0003168002821F480313160316821F4802198
:1011F00031604FD0FFF7FEFC054600BF306880032A
:101200003FF5B7AEFFF7F6FC401B6428F6D9032084
:1012100002B0BDE8F08100BF04F11C052FCD0843EA
:1012200040EA8210D9034FF6FF729143A1F5803155
:1012300040EA05600843706001203866FFF7DAFC79
:10124000044600BF306880013FF5E4AEFFF7D2FCF2
:10125000001B02284FF00300F4D9DCE6FFF7CAFCBC
:10126000054641F2883700BF306F800708D5FFF789
:10127000C1FC401BB8424FF00300F5D9CBE600BFDC
:10128000B8F1000F7FF499AE306C20F080503064DC
:1012900093E600BFFFF7AEFC054600BF3068800351
:1012A0007FF567AEFFF7A6FC401B64284FF00300F4
:1012B000F4D9B0E670B538B10446406A30B10020C8
:1012C000206104F1140007E0012070BD6068B0F5F2
:1012D000827F03D004F11C00002101600026A66279
:1012E00094F8510020B9204684F8506000F03CF892
:1012F000022084F8510094E80F0001F4827105681F
:1013000002F4044225F040050560114403F4006234
:101310002369114403F002026369114403F00102DE
:10132000A369E569114403F40072114405F0380221
:10133000256A114405F08002A56A114305F40052A4
:1013400011430160626A042101EA134102F01002B4
:1013500011444160C16921F40061C16101206665E9
:1013600084F85100304670BD80B586B0016843F204
:101370000000C4F20100814202D006B080BD00BF6F
:10138000002143F630020191C4F20202536900F5D4
:10139000504043F480535361536903F480530193E5
:1013A000019B0191136843F001031360126802F07E
:1013B00001020192019AF02201920222CDE902215A
:1013C000032104910521059101A9FFF72BFB06B02C
:1013D00080BD00002DE9F04381B0044640681D4601
:1013E0001746B0F5827F0E4601D1A068E0B394F8AD
:1013F0005000012804D1022001B0BDE8F08300BFF5
:101400004FF0010984F85090FFF7F4FB94F8511065
:10141000012927D18046002E4FF0010018BF002F70
:1014200000F0C9800420002184F851006165A663A2
:10143000A787E7872163A186E186A2682068B2F5C5
:10144000004F216461644BD00168490653D5E168BF
:10145000E08F002957D0002800F08680681C1CD13E
:101460002DE000BF0220A6E0042084F851002046B1
:10147000314632463B46009500F0D0F901B0BDE858
:10148000F08300BFC068A16B21F8020BA163E08F5D
:101490000138E087E08F002866D020688168C9079E
:1014A000F0D1FFF7A7FBA0EB0800A842F2D303207E
:1014B00081E000BFFFF79EFBE08F002854D020683A
:1014C0008168C907F6D0C068A16B21F8020BA1633F
:1014D000E08F0138E087E08F0028F0D144E000BFC2
:1014E000016821F040010160016821F48041016040
:1014F00001684906ABD4016841F040010160E16830
:10150000E08F0029A7D178B3681C0CD11CE000BF84
:10151000007BA16B0870A06B0130A063E08F0138E5
:10152000E087E08F00B320688168C907F0D1FFF73A
:1015300061FBA0EB0800A842F3D303203BE000BF0F
:10154000FFF758FBE08F78B120688168C907F7D0B2
:10155000007BA16B0870A06B0130A063E08F0138A5
:10156000E087E08F0028EFD16068B0F5827F0ED170
:10157000A068B0F5004F02D0B0F5806F0AD12168A5
:10158000B0F5806F0A6822F040020A6002D120465E
:10159000012101E0204680212A46434600F0B6FDA5
:1015A00028B1606D40F02000606520206065606DAE
:1015B000002818BF0120002184F8519084F85010B1
:1015C00001B0BDE8F08300002DE9F04383B004468C
:1015D00090F85000012803D1022003B0BDE8F08349
:1015E0004FF001091D4616460F4684F85090FFF74C
:1015F00001FB94F85110012944D18046002F4FF08F
:10160000010018BF002E00F0D6800320002184F8CE
:10161000510061652763A686E686A163A187E187FD
:10162000A0682164B0F5004F2068616407D10168AB
:1016300021F040010160016841F4804101600168CE
:10164000490603D4016841F0400101606168731EDE
:10165000E268B1FA81F1B3FA83F349095B09B2F5A3
:10166000006F41EA03013DD131B137F8021BC1607F
:101670002763E08E0138E086E08E00286CD0681C7D
:101680000DD11EE0022096E0216B31F8022BC260E2
:101690002163E08E0138E086E08E00285CD020686F
:1016A00081688907F0D4FFF7A5FAA0EB0800A842EB
:1016B000F2D303207FE000BFFFF79CFAE08E002802
:1016C0004AD0206881688907F6D5216B31F8022B52
:1016D000C2602163E08E0138E086E08E0028F0D100
:1016E0003AE000BF39B139780173206B01302063D3
:1016F000E08E0138E086E08E70B3681C0BD11BE0F1
:10170000216B09780173206B01302063E08E013872
:10171000E086E08E00B3206881688907F0D4FFF787
:1017200069FAA0EB0800A842F3D3032043E000BF0E
:10173000FFF760FAE08E78B1206881688907F7D5F5
:10174000216B09780173206B01302063E08E013832
:10175000E086E08E0028EFD140F20800C2F20000DF
:10176000006849F68171C1F25E61A0FB0101480D7C
:101770004FF47A71484302906068B0F5827F23D1BC
:10178000204680212A46434600F0C0FC28B1606D07
:1017900040F02000606520206065A06838B9002016
:1017A00001902068C1680191806801900198606D86
:1017B000002818BF0120002184F8519084F85010AF
:1017C00003B0BDE8F08300BF02980028E5D002987E
:1017D00001380290206880680006DED50298002853
:1017E000DBD0029801380290206880680006D4D5CA
:1017F00002980028D1D002980138029020688068B1
:101800000006CAD502980028C7D002980138029075
:10181000206880680006D7D4BFE700002DE9F043B8
:1018200083B0044690F85000012803D1022003B091
:10183000BDE8F08301201E4615460F4684F850008F
:10184000FFF7D8F994F851108146012940F09880AB
:10185000002F4FF0010018BF002D00F09E80002ED9
:1018600000F09B8094F85100002104281CBF052043
:1018700084F851006165A563E687A6872763E6863D
:101880002068A686216461640168490603D4016862
:1018900041F0400101606168731EE268B1FA81F1B4
:1018A000B3FA83F3DDF8288049095B09B2F5006FCC
:1018B00041EA03017AD131B137F8021BC1602763D5
:1018C000E08E0138E086012518F1010031D101E0F8
:1018D000FFF790F9E08E18B9E08F002800F0D08073
:1018E0002068816889070CD5E18E51B1012D08D19E
:1018F000216B002531F8022BC2602163E18E013992
:10190000E1868168C907E3D0E18F0029E0D0C06893
:10191000A16B012521F8020BA163E08F0138E0875C
:10192000D6E700BFFFF766F9A0EB0900404580F05D
:10193000FD80E08E18B9E08F002800F0A1802068BB
:10194000816889070CD5E18E51B1012D08D1216B39
:10195000002531F8022BC2602163E18E0139E18656
:101960008168C907DED0E18F0029DBD0C068A16B98
:10197000012521F8020BA163E08F0138E087D1E750
:101980006068B0F5827F07D1A06800284FF00200A0
:1019900008BF042901D15BE70220012184F851101E
:1019A000002184F8501003B0BDE8F08339B13978D4
:1019B0000173206B01302063E08E0138E086012541
:1019C00018F1010033D101E0FFF714F9E08E10B9EE
:1019D000E08F002854D02068816889070ED5E18EF9
:1019E00061B1012D0AD1216B002509780173216BAA
:1019F000206801312163E18E0139E1868168C907E0
:101A0000E2D0E18F0029DFD0C068A16B012508700A
:101A1000A06B0130A063E08F0138E087D4E700BFFE
:101A2000FFF7E8F8A0EB0900404580F08180E08EE8
:101A300008B9E08F20B32068816889070ED5E18E50
:101A400061B1012D0AD1216B002509780173216B49
:101A5000206801312163E18E0139E1868168C9077F
:101A6000DED0E18F0029DBD0C068A16B01250870B2
:101A7000A06B0130A063E08F0138E087D0E700BFA2
:101A800040F20800C2F20000006849F68171C1F21C
:101A90005E61A0FB0101480D4FF47A71484302904A
:101AA0006068B0F5827F0FD12046802142464B46C8
:101AB00000F02CFB60B3606D40F0200060652020DA
:101AC0006065012069E700BF029808B302980138F9
:101AD00002902068806800061AD50298C0B102986A
:101AE0000138029020688068000611D5029878B10C
:101AF00002980138029020688068000608D5029894
:101B000030B1029801380290206880680006DBD46A
:101B1000A06800284FF000007FF43FAF01902168DB
:101B2000CA68019289680191019936E7032034E778
:101B3000032032E7411E0020B0EB116F1CBF0120D3
:101B400070474EF21002CEF2000251604EF6235161
:101B5000CEF20001F0230B700721906011607047F6
:101B6000002804BF0120704710B5044690F83D00DE
:101B700028B9002084F83C00204600F08FF80220AD
:101B800084F83D00206840F2FF730268C4F200034D
:101B900040F2000C9842C4F2010C1DDD40F6000139
:101BA000C4F20001884220D060451ED040F60041BA
:101BB000C4F20001884218D04FF6FF71C4F2000150
:101BC00088421CDC984225DCB0F1804F3AD040F2CC
:101BD0000041C4F2000133E0B0F1804F05D040F283
:101BE0000041C4F200018842E6D1A16822F07002EF
:101BF0000A434FF6FF71C4F200018842E2DD44F26D
:101C0000FF31C4F20101884210DC60451AD044F271
:101C1000000113E040F60001C4F20001884211D037
:101C200040F60041C4F200010AE000BF44F60001A2
:101C3000C4F20101884205D044F20041C4F201011E
:101C4000884203D1216922F440720A43A36922F039
:101C50008001D4F804E0E268194360450160C26283
:101C6000C0F828E002D16169CCF83010012141614F
:101C7000002084F8461084F83E1084F83F1084F861
:101C8000401084F8411084F8421084F8431084F81E
:101C9000441084F8451084F83D1010BD81B00068F0
:101CA000B0F1804F02D001B0704700BF002000901B
:101CB00043F64000C4F20200016841F001010160F6
:101CC000006800F001000090009801B0704700002B
:101CD00090F83D1001291CBF01207047022180F8B7
:101CE0003D10006840F6FF31C4F2000188420FDC6D
:101CF000B0F1804F1DD040F20041C4F20001884293
:101D000017D040F60001C4F20001884211D017E05C
:101D100040F60041C4F2000188420AD044F20001BA
:101D2000C4F20101884204D00021C4F201018842BA
:101D300006D1816801F00701062904BF0020704721
:101D4000016841F001010160002070470146006810
:101D500041F21113026A1A4204D00122002081F8D4
:101D60003D207047026A40F244431A42F5D10268AE
:101D700022F0010202600122002081F83D2070471C
:101D8000FEE7000080B50020C4F202004FF40071AD
:101D90000022FEF729FF002000F008F8012000F0E3
:101DA00005F80520BDE88040FEF728BE2DE9F04784
:101DB00040F200440546C4F202044EF2180AA4F5AB
:101DC000806005F008024FF48071CEF2000AFEF741
:101DD0000BFF05F0040220464FF48061FEF704FF7C
:101DE00005F0020220461021FEF7FEFE05F001027A
:101DF00020462021FEF7F8FE04F580694846802140
:101E00000122FEF7F1FE5AF8040C44F6D3580130D3
:101E1000C1F26208A0FB08018F09FEF7EBFEDAF8B9
:101E200000100546B1FBF7F44FF47A76FEF7E2FEB8
:101E3000DAF80010401BB1FBF7F1611A00FB061045
:101E40003228F3D3484680210022FEF7CDFE5AF80F
:101E5000040C0130A0FB08018D09FEF7CBFEDAF877
:101E600000100446B1FBF5F74FF47A76FEF7C2FE98
:101E7000DAF80010001BB1FBF5F1791A00FB06102F
:101E80003228F3D3BDE8F087F0B585B001200024F7
:101E900001900220C4F2020403904FF400706D46DA
:101EA00000270090204629460297FEF7BBFD8020C0
:101EB000009004F500602946FEF7B4FD082000906C
:101EC00020462946FEF7AEFD202004F580660090EE
:101ED00030462946FEF7A6FD1020009030462946E0
:101EE000FEF7A0FD4FF48060009030462946FEF7D3
:101EF00099FD4FF48070009020462946FEF792FD30
:101F0000FEF778FEC72806D80120FEF777FDFEF71A
:101F100071FEC828F8D340F2D205C2F200050320B2
:101F2000A5F80170FFF742FF0520FEF767FD0320CB
:101F3000FFF73CFF0520FEF761FD0320FFF736FFAA
:101F40000520FEF75BFD0220FFF730FF0520FEF7BE
:101F500055FD20464FF400710022FEF745FE022099
:101F6000FFF724FF0820FFF721FF042028702046F8
:101F70004FF400710022FEF737FE0020FFF716FF36
:101F80000C20FFF713FF20464FF400710022FEF7EC
:101F90002BFE0020FFF70AFF0120FFF707FF0520B7
:101FA000FEF72CFD20464FF400710022FEF71CFEC8
:101FB0000020FFF7FBFE0620FFF7F8FE0520FEF7E6
:101FC0001DFD05B0F0BD00002DE9F04F81B040F2DD
:101FD000D20643F2126A012988BF0021C2F200062C
:101FE000C0F6000A40F20008B1701AF80110C4F2FD
:101FF0000208144670700D1840464FF4007100221C
:10200000EFB24FF00009FEF7EFFD4FF0080B4BEA7F
:102010001710FFF7CBFE05F00F00FFF7C7FE25787E
:10202000002D6AD0671C13E040464FF40071012276
:10203000FEF7DAFD2009FFF7B9FE05F00F00FFF704
:10204000B5FE70780130707017F8015B002D54D028
:10205000707820281BD3B07800220130C1B201294A
:1020600088BF0020C1B21AF80140B07040464FF45A
:10207000007186F80190FEF7B7FD4BEA1410FFF7E8
:1020800095FE04F00F00FFF791FE17F8015CECB22B
:102090000D2C17D00A2CC7D1B07871780130C2B29C
:1020A000012A88BF0020C2B21AF80220B07054186A
:1020B00040464FF400710022E5B2FEF795FD4BEA71
:1020C000151010E0B0784FF40071012888BF00208F
:1020D0001AF80040B0704046002286F80190FEF7E2
:1020E00083FD4BEA1410FFF761FE04F00F00FFF7C9
:1020F0005DFE17F8015B002DAAD101B0BDE8F08F9D
:10210000FEE70000FEE70000704700002DE9F04107
:1021100082B01E4690460D460446FEF76BFD301A0F
:1021200000EB0807FEF766FD40F20801C2F200016D
:102130000968C1F3CB317943019121688A682A404B
:10214000AA4227D1064618F101001FD0FEF752FD22
:10215000801BB84222D2019801990028A1F1010107
:1021600001912168896808BF074601EA0500A84275
:10217000ECD00FE088682840A8420BD1886828403E
:10218000A84207D188682840A84203D1886828401F
:10219000A842EFD0002002B0BDE8F081D4E90001F0
:1021A0004268B1F5827F22F0E00242600AD1A16864
:1021B000B1F5004F02D0B1F5806F03D1016821F075
:1021C00040010160A16AB1F5005F07D1016821F407
:1021D00000510160016841F400510160012084F860
:1021E0005100002084F85000032002B0BDE8F081C7
:1021F00070470000FEF704BD80B543F60400C4F24A
:102200000200416801F00C0242F20041082AC0F2CB
:10221000F40107D0042A21D147F64001C0F27D1114
:102220001CE000BFD0F800C00368026803F03F0361
:10223000C2F3881E5FEA4C2247F64002C0F27D12CC
:1022400058BF0A46B2FBF3F102680223C2F301420F
:102250000EFB01F103EB4202B1FBF2F140F2080286
:10226000C2F200021160406843F20263C0F303103F
:10227000C0F60003185C21FA00F0106080BD000079
:102280004EF68850CEF20000016841F47001016002
:1022900070470000FEE70000A8B043F6300740F2A8
:1022A0000044C4F20207C4F20204FEF7B7FC0026A1
:1022B0001B96386840F001003860386800F0010073
:1022C0001B901B981B96386840F0020038603868F5
:1022D00000F002001B901B981B96386840F0040029
:1022E0003860386800F004001B901B98FFF784FFEB
:1022F0001BAD281D2C21FEF7CDF81296CDE91066F6
:10230000CDE90E6601963869022240F080503861AE
:10231000386900F080500190019846F6004001961F
:10232000CFF6FE70215862F38F312150205800F40F
:1023300040400190019801201E9010201F902846D7
:102340001B922196FEF7FCFD20B1EFF3108072B6D0
:10235000FEE700BF0F20CDE90E060EA80021CDE953
:1023600010661296FEF706FD20B1EFF3108072B6EC
:10237000FEE700BF4FF00008CDF86C80386804F528
:10238000806640F00100386038680DF16C0A00F09A
:1023900001001B901B987820CDE91B084FF0020923
:1023A00030465146CDF87490FEF73CFB07201B9059
:1023B00001251CA880E8200330465146FEF732FB79
:1023C00020465146CDE91B581D95FEF72BFB80207A
:1023D0001B904FF48810CDE91C0920465146FEF7AA
:1023E00021FB172000210022FEF788FC1720FEF7B2
:1023F00071FC4FF480701BA981E8210120465146F1
:10240000CDF87880FEF70EFB0320CDE91C08A4F57B
:1024100080601BA91B95FEF705FBCDF83880786915
:1024200040F2D80540F4807078617869C2F2000506
:1024300000F480700E900E98A4F5644028600EA9F8
:102440002846CDF83880FEF72DF92846FEF750FAD9
:1024500040F22010A4F55441C2F200004FF4827201
:102460004FF4802380E806010A21C0E90388C0E90F
:102470000583C0F81C80C0E90888C0E90A81FEF71E
:1024800019FF28B1EFF3108072B600BFFEE700BF5E
:10249000FFF7FAFC0FF2E03200200021FFF794FD75
:1024A0000FF2E03200200121FFF78EFD4FF47A7029
:1024B000FEF7A4FAFFF766FC40F2700640F2D8057A
:1024C0009FEDE98B9FEDEA9B40F2781BC2F200067C
:1024D000C2F20005C2F2000BC6E90488FFF752FC05
:1024E00000200021EAA2FFF76FFD00200121EFA2EA
:1024F000FFF76AFD00F008FAFFF744FCB068032814
:1025000014D0022824D001286ED1F068012855D1BA
:102510000120307046F67310C6F26E5043F27562B9
:10252000306386F83480C0F6000259E0F068012874
:1025300024D10320307046F27210C7F26D0043F2CE
:102540003162306386F83480C0F6000248E000BF94
:10255000F068012824D10220307047F27310C6F2CF
:102560007510306347F26120C0F2650043F2886263
:10257000C6F83300C0F6000232E000BF062030701B
:1025800046F6731046F2612143F24862C0F26E00D3
:10259000C2F27301C0F60002C6E90C1020E000BFD1
:1025A0000520307047F27340C6F661103063722028
:1025B00043F29D62B086C0F6000211E00420307044
:1025C00047F2742046F26E71C6F26910C6F26C5181
:1025D00043F25E62C6E90C0186F83880C0F600025C
:1025E00000200021FFF7F0FC4FF47A70FEF706FAA6
:1025F000FFF7C8FB00200021B4A2FFF7E5FC00BFF5
:1026000000F082F9F0680428FAD1B0680328F7D105
:102610005C46FFF7B7FB2846FEF76AF928464FF4F9
:102620007A71FEF7E7F80028F8D12846FEF7DEF8C1
:1026300000F00FFD41EC100B58EC189B4A46434646
:1026400086ED0A0B00F054FD57EC19BB5A463B4689
:1026500000F076FB41EC100B00F04EFA51EC100B41
:1026600000F0C8FC5F21414301F5FA720DF16C0ADC
:1026700043F2B161B070C6E906025046C0F60001EF
:10268000FDF778FE002000215246FFF79DFC4FF435
:10269000FA70FEF7B3F9FFF775FB0020002190A256
:1026A000FFF792FC00F030F9F0680428FAD1B06826
:1026B0000328F7D1FFF766FB2846FEF719F940F229
:1026C000201AC2F2000A00BF28464FF47A71FEF7C2
:1026D00091F80028F8D12846FEF788F800F0B9FCF8
:1026E00041EC100B4A46434686ED0A0B00F000FD14
:1026F0005A463B4600F024FB41EC100B00F0FCF97D
:1027000051EC100B00F076FCB061F07000EB800033
:102710001BAF43F2CE6142003846C0F60001326280
:10272000FDF728FE002000213A46FFF74DFC4FF44C
:10273000FA70FEF763F9FFF725FB3078374607F8A4
:10274000040F37F8020C3946A7F80100504603225F
:102750004FF0FF33FEF738FF4FF0000843F630012B
:10276000CDF83880C4F20201086948F2A06940F04F
:10277000010008610869C0F2010900F001000E9033
:102780000E984FF0804020604F20C4E9010880205F
:102790000C21C4E90398A061C4F200010868A346B3
:1027A00040F0010008602046FFF7DAF92046FFF705
:1027B0008FFABA69336A0EAC20464EA1FDF7DAFDF6
:1027C0002C3738462146FDF759FE002000213A46B5
:1027D000FFF7FAFB40F20047C4F202073846012136
:1027E000FEF7F4F90028F9D0711C50460122642349
:1027F000FEF7F0FD0120FEF701F97069316A99FBDF
:10280000F0F046F26763C6F26663421A51FB03F1C9
:10281000CB10520003EBD17148BF52428A424FF0B5
:102820000001A8BF012100FA01F201AC43F21661D8
:102830002046C0F60001FDF79DFDFFF7A3FA00203A
:1028400000212246FFF7C0FB5846FFF77FFA00BF82
:1028500000F05AF8F0680428FAD1B0680328F7D1DC
:102860003AE600BF00BF00BF000000000000594072
:102870000000000000FEAF403939323433303238C6
:1028800000000000393932343330363100000000A6
:10289000313A73696E6520323A73717561726520E1
:1028A000333A7361776F6F7468000000343A747262
:1028B0006169616E676C6520353A73746169727322
:1028C00020363A6162732073696E650073656C65CA
:1028D000637420776176652074696D65000000007F
:1028E00073656C656374206672657175656E637976
:1028F00000000000202074696D653A202564206680
:102900007265713A202564002DE9F04140F600041B
:10291000C4F202042046072100224FF00008FEF70F
:1029200063F940F27005C2F2000520460421C5F8A3
:102930000880FEF751F91920FEF760F820460821BB
:10294000C5F80C80FEF742F9012805D101270126C0
:10295000C5E90267BDE8F081022620461021FEF796
:1029600035F9012878D020462021FEF72FF90128DB
:1029700078D020464021FEF729F9012878D0E86870
:1029800000287BD120460421FEF726F920460221AB
:10299000FEF722F91920FEF731F820460821C5F884
:1029A0000C80FEF713F901286CD020461021FEF7A9
:1029B0000DF901286CD020462021FEF707F90128E7
:1029C0006CD020464021FEF701F901286CD0E86860
:1029D00000286FD120460221FEF7FEF82046012193
:1029E0000127FEF7F9F81920FEF708F8204608211C
:1029F000C5F80C80FEF7EAF801285FD020461021C8
:102A0000FEF7E4F801285FD020462021FEF7DEF82B
:102A100001285FD020464021FEF7D8F801285FD07A
:102A2000E868002862D1204601210127FEF7D4F88A
:102A300020460421C5F80880FEF7CEF81920FDF7DE
:102A4000DDFF20460821C5F80C80FEF7BFF80128FD
:102A50007FF483AF7BE700BF01260227C5E9026749
:102A6000BDE8F08101260327C5E90267BDE8F081D2
:102A700001260427C5E90267BDE8F0810126AE60A2
:102A8000BDE8F0810127C5E90267BDE8F08100BF1C
:102A900002270226C5E90267BDE8F0810226032766
:102AA000C5E90267BDE8F08102260427C5E902678F
:102AB000BDE8F0810226AE60BDE8F0810326C5E9DD
:102AC0000267BDE8F08100BF03260227C5E902675F
:102AD000BDE8F08103270326C5E90267BDE8F08160
:102AE00003260427C5E90267BDE8F0810326AE602E
:102AF000BDE8F0810000000010B52DED020B2DEDBA
:102B0000088B84B09DED0C0B51EC100B00F024FCF5
:102B100041EC180B9DED0C0B53EC182B51EC100BEA
:102B200000F074FC41EC190B0D989FED290B10F08F
:102B3000004F53EC102B51EC190B9FED21AB9FED87
:102B400022BB0ED000F098FA0ED953EC1B2B51EC9F
:102B5000190B00F0CBFB1CD214E000BF41EC180BAA
:102B600017E000F089FA06D253EC1A2B51EC180B3F
:102B700000F04CFCF2E753EC1B2B51EC190B00F06E
:102B8000B5FB06D853EC1A2B51EC180B00F024F8C7
:102B9000E4E78DED028B9DED0C0B18EE901A10EE14
:102BA000900A8DED000B61F31E0003909DED020B6A
:102BB00004B0BDEC088B02B010BD000000000000A6
:102BC000000000000000F03F000000000000E03FB7
:102BD000000000000000E0BF10B591EA030F48BFFD
:102BE00083F0004300F11A84841A71EB030C05D2C0
:102BF000121943EB0C03001B61EB0C014FEA11545B
:102C0000A4EB135CDFF81CE11EEA430F18BF9EEA39
:102C1000445F00F0748021EA045123EA0E0343F478
:102C20008013DCF1200E32D322FA0CFE10EB0E00E2
:102C300023FA0CFE41EB0E01CCF1200E03FA0EFE3E
:102C400010EB0E00CCF1200E51F10001B1F5801F08
:102C500032D201EB045112FA0EF2BDE8104058BF17
:102C60007047401C38BF5FEA420218BF7047002817
:102C700014BF20F0010041F100014FEA410313F5B8
:102C8000001F38BF7047A1F1C04100F029BB012AE5
:102C900043EB0302ACF1200CDCF11F0E32BF4FF00E
:102CA000000E23FA0CF310EB030041EB0451B4EBDC
:102CB000115FD0D0A1EB045101F58011490801EB5F
:102CC00004515FEA30000ED350F1000038BF12FA11
:102CD0000EFE08D1BDE81040C9E7401C38BF5FEACE
:102CE0004202CAD1C3E7BDE810404FEA410313F5E1
:102CF000001F38BF7047A1F1C04100F0F1BA9EEA51
:102D0000445F08D011EA5E0FBDE8104004BF01F037
:102D1000004100207047BDE8104070B500F092FA05
:102D200064FBBE3E0000E0FF491058BFC1F14041C6
:102D30005B1058BFC3F140438B42EFF300807047F4
:102D40002DE9C04130B4DFF8A4C23CEA111418BF29
:102D50003CEA131400F0ED801CEA111481EA03052B
:102D600044EAD57418BF1CEA131500F0C880A4EB20
:102D7000050404F17F7404F500344FF0004545EA82
:102D8000C12145EAC32341EA505143EA52534FEA75
:102D9000C0204FEAC222994208BF904200F09D80B5
:102DA0004FEA13650FF24416765D4FEA134506FBB2
:102DB00005F7C7F1807706FB07F74FEAD737A7FB80
:102DC00003687642A7FB06CEC8F5803838BFA8F165
:102DD000010807FB08E6A6FB028C4FF0000EE6FB9D
:102DE00003CEDCF1000CCEF1004E38BFAEF1010E87
:102DF000A6FB0C584FF00007E6FB0E87A1FB08C6A8
:102E0000A0FB07CE16EB0E064FF0000545F10005BE
:102E1000E1FB076515F1E04E7EBFA4F580345FEA63
:102E200046066D4116F1800745F100054FEA172768
:102E300047EA05674FEA15254FEA0666A6F1DE4622
:102E4000B6F1805F20D9384605EBC47124F0010C3F
:102E500001EB0C11BCF1FE6F02D8F0BCBDE80081A3
:102E600024425CBF01F5801E9EEAC47F02D4F0BC00
:102E7000BDE80081244200F13980A1F1C041F0BCDD
:102E8000BDE8004100F02CBA4FEAD02040EA4150A2
:102E90004FEAD1214FEAD22242EA43524FEAD323EA
:102EA000A7FB028607FB036605FB02661EEA0E0F00
:102EB00058BFA6EB0056B6EB00564FEA520E4EEA4C
:102EC000C37E18EB0E0E56EB530EBCD518EB020862
:102ED0005E417F1C55F10005B5E74FF480154FF0BA
:102EE00000074FF000064FF00008ACE701F1C041C9
:102EF00001F000414FF00000F0BCBDE800810CEA99
:102F0000131511EA0C1F00D00CE013EA0C1F00F09F
:102F100026804FF0000081EA030101F00041F0BC7F
:102F2000BDE80081F0BCBDE8004181EA030100F08A
:102F3000D7B9F0BCBDE8004170B500F083F900BF1F
:102F4000097EFC3E00F007B84FF0000081EA030163
:102F500001F00041704781EA030100F0C1B9F0BC03
:102F6000BDE8004122494FF000007047FFFDFBF92A
:102F7000F7F5F4F2F0EEEDEBE9E8E6E4E3E1E0DEAC
:102F8000DDDBDAD8D7D5D4D3D1D0CFCDCCCBCAC81E
:102F9000C7C6C5C4C2C1C0BFBEBDBCBBBAB9B8B745
:102FA000B6B5B4B3B2B1B0AFAEADACABAAA9A8A838
:102FB000A7A6A5A4A3A3A2A1A09F9F9E9D9C9C9B06
:102FC0009A999998979796959594939392919190B1
:102FD0008F8F8E8E8D8C8C8B8B8A89898888878742
:102FE0008685858484838382828181800000FF07B7
:102FF0000000F87F4FEA41034FEA5353A3F5806383
:10300000D3F11E03C8BFD3F1210C0CDD4FF00042F9
:1030100042EAC12242EA505232FA03FC8CEAE17CD5
:10302000ACEBE1707047102BC4BF0020704703F574
:10303000787CBCF1FF3F04D06FF0004282EA2100AF
:10304000704770B500F0FEF8499224800020704768
:10305000F2E7B0FA80F310FA03F10AD0C3F11D03CE
:1030600003F580634FEA03524FEA415002EBD1214E
:1030700070474FF00000704751EA030C17D41CF55D
:10308000801F58BFBCF5801F00F10680994218BF11
:10309000704708BF9042704707D711F5801F58BF8F
:1030A00013F5801F19D499427047894270471CF567
:1030B000801F08D5BCF5801FF7D58B4218BF70471D
:1030C00008BF824270474FF4001C1CEB410F38BF11
:1030D0001CEB430F01D28B42704770B500F0B2F881
:1030E000922449004FF000514FF08053FFF71CBE6F
:1030F00070B5DFF848C11CEA111E1EBF1CEA13158B
:103100009EEA0C0F95EA0C0F00F06F8081EA030431
:103110004EEAD47EAE4421EA4C1123EA4C1341F42A
:10312000801143F48013AEF17F7EA1FB024CA0FB23
:103130000365361955EB0C05A1FB034C4CF100035C
:10314000A0FB021C16EB0C06654153F1000309427B
:1031500018BF46F0010613F4007F0BD14FEA03318C
:103160004FEA053041EA155140EA165034036FF03A
:1031700003020AE04FEAC3214FEAC52041EA555154
:1031800040EA5650F4026FF0020202EB2E4201EBCD
:10319000025585EACE710AD05FEA440C18BF24F0CC
:1031A000004450F1000041F1000120EAD47040F2E7
:1031B000FE7C624500D270BDA84214BF4FF080442F
:1031C0004FF04044002E08BF0024BEF1806FA8BF1E
:1031D000A1F1C041BDE8704080F2828001F1C041A0
:1031E00001F000414FF0000070470CEA13159EEA11
:1031F0000C0F18BF95EA0C0F06D081EA030E4FF0B2
:1032000000000EF0004170BD00F01CF88900013E86
:1032100000F007B800F009B84FEA430C5FEA5C5CC5
:1032200008D081EA030100F05BB84FEA410C5FEA85
:103230005C5CF6D102494FF0000070470000FF07C8
:103240000000F87F0EF1020E2EF0030E5EF8046B04
:10325000364205D4012A43EB030515F5001F12D8A9
:10326000012841EB010C1CF5001F0CD80ED14FEAD0
:10327000D17C0CEB4C0C0CF1020C15F5001F08BFB7
:103280004CEBD37C04E04FF0080C01E04FEAD37C18
:103290000CEB4C0526FA05F606F00706B6F1040C11
:1032A00006D20EEB860CBDE870404CF0010C604776
:1032B000DFE80CF0090B02024FF00041A1F50021FC
:1032C0004FF0000070BD19461046012851EB010473
:1032D00018BFD4F5001484BF002001F0004170BD78
:1032E0000808A0F500114FEA3101704753EA010CBC
:1032F00017D41CF5801F58BFBCF5801F00F1068055
:103300008B4218BF704708BF8242704707D713F53A
:10331000801F58BF11F5801F19D48B4270479B4204
:1033200070471CF5801F08D5BCF5801FF7D5994262
:1033300018BF704708BF904270474FF4001C1CEB49
:10334000430F38BF1CEB410F01D2994270470FB4B5
:103350000CBC03BCFFF7C1BE5FEA410C5FEA5C5CDA
:10336000ACF580635B1C39D4D3F1340240F3458063
:10337000B2F1200314DA4FF0010C0CFA02FCACF1AC
:103380000103034020EA0300B3EB5C0208BF10EA2C
:103390000C0F98BF704710EB0C0041F10001704713
:1033A0000AD0C3F1200201FA02FC01284CF100000E
:1033B00021FA03F101FA03F14FF0010C0CFA03FCBE
:1033C000ACF1010321EA0301B0F1004F08BF11EA9B
:1033D0000C0F4FF0000088BF61447047B3F1FF3F0E
:1033E00028BF50EAC12C01F000414FF0000084BF1B
:1033F00041F07C5141F470017047B3F5806FB8BF64
:10340000704770B5FFF71EFF40DBB6BE10B591EAFE
:10341000030F48BF83F000433FF5E6AB841A71EB1E
:10342000030C07D28CF0004C121943EB0C03001B69
:1034300061EB0C014FEA1154A4EB135CDFF8A4E13B
:103440001EEA430F18BF9EEA445F00F0B48021EAF1
:10345000045123EA6E035242C3EB6E0338BF5B1E76
:10346000DCF1200E25D322FA0CFE10EB0E0043FAFD
:103470000CFE41EB0E01CCF1200E03FA0EFE10EB18
:103480000E00CCF1200E51F1000129D401EB0451C2
:1034900012FA0EF2BDE8104058BF7047401C1CBF26
:1034A000B2F1004F704700280CBF491C20F001000A
:1034B000704712EB020E43EB030218BF4FF0010EF0
:1034C0004EEA4202ACF1200CDCF11E0E56D943FA52
:1034D0000CFE10EB0E00CCF11E0E51F1FF31D5D5D4
:1034E0000EF1010E12FA0EFE404141EB010101EB1B
:1034F000445C5FEA5C5C10D901EB045110EBDE70B8
:1035000038BFBEF1004FBDE8104018BF704700281B
:103510000CBF491C20F00100704734D24FEAD42C74
:1035200024F4006411F500111BD0B1FA81F20B3ABA
:10353000A41AA41ED2F12003914030FA03F31943D8
:10354000904001EBCC7101EB0451002CBDE8104020
:10355000A8BF704701F1C04101F000414FF00000E9
:103560007047B0FA80F310FA03F102D1BDE81040C1
:103570007047E41A173C4805C90AE2E701EB045119
:10358000BDE81040704749104FEA300001EB04518C
:10359000BDE8104002E04FF0000170474A0008BF4C
:1035A0000042F8D0B2F5001F28BF704701F000417B
:1035B0004FF0000070479EEA445F07D011EA5E0FAB
:1035C000BDE8104004BF002100207047BDE8104056
:1035D00070B5FFF737FE00BF40DFF63E104683F0C0
:1035E000004170470000E0FFF1EE100A4FF6FF7156
:1035F000C0F2C03120EA010040F04070E1EE100A54
:1036000070470000000000000000010203040607EC
:103610000809004014542020657374696D61746555
:10362000645F6672657175656E63793A2025642002
:1036300000736177746F6F746820776176652073AB
:10364000656C6563726564006162732073696E20E6
:10365000776176652073656C65637265640074726A
:1036600069616E676C6520776176652073656C654E
:10367000637465640073696E652077617665207395
:10368000656C65637465640073717561726520773C
:103690006176652073656C6563746564007374613D
:1036A000697220776176652073656C656374656403
:1036B000002575207761732073656C65637465649C
:1036C00020617320776176652074696D65002575CA
:1036D000207761732073656C656374656420617322
:1036E000206672657175656E637900001037000899
:1036F0000000002010000000D00100082037000862
:1037000010000020B8070000EC01000800000000D5
:1037100001000000100000000024F4000000000080
:040000050800019559
:00000001FF
