:020000040800F2
:100000001808002035020008E9170008E117000869
:10001000E51700082D040008E51A0008000000009C
:10002000000000000000000000000000D5180008DB
:100030003104000800000000ED170008D91800087E
:100040004F0200084F0200084F0200084F0200084C
:100050004F0200084F0200084F0200084F0200083C
:100060004F0200084F0200084F0200084F0200082C
:100070004F0200084F0200084F0200084F0200081C
:100080004F0200084F0200084F0200080000000065
:100090000000000000000000000000004F02000807
:1000A0004F0200084F0200084F0200084F020008EC
:1000B00079190008491A0008A11A00084F0200081F
:1000C0004F0200084F0200084F0200084F020008CC
:1000D0004F0200084F0200084F0200080000000015
:1000E0004F0200084F0200084F0200080000000005
:1000F0000000000000000000000000004F020008A7
:10010000000000004F0200084F0200084F020008E4
:1001100000000000000000000000000000000000DF
:100120004F0200084F0200084F0200084F0200086B
:100130004F02000800000000000000000000000066
:100140000000000000000000000000004F02000856
:100150004F0200084F0200084F0200084F0200083B
:100160004F0200084F0200080000000000000000DD
:10017000000000000000000000000000000000007F
:10018000000000004F020008000000000000000016
:100190004F02000800F002F800F03CF80AA090E8D6
:1001A000000C82448344AAF10107DA4501D100F032
:1001B00031F8AFF2090EBAE80F0013F0010F18BFC3
:1001C000FB1A43F001031847BC260000DC260000A0
:1001D000103A24BF78C878C1FAD8520724BF30C873
:1001E00030C144BF04680C60704700000023002445
:1001F00000250026103A28BF78C1FBD8520728BF37
:1002000030C148BF0B6070471FB502F021FB1FBD16
:1002100010B510BD00F0D0F81146FFF7F5FF01F062
:1002200049FD00F0EEF803B4FFF7F2FF03BC00F065
:10023000F5F800000948804709480047FEE7FEE757
:10024000FEE7FEE7FEE7FEE7FEE7FEE7FEE7FEE786
:1002500004480549054A064B704700006519000827
:10026000950100081802002018080020180400203A
:100270001804002053EA020C00F069802DE9F04BCD
:100280004FF00006002B1FBFB3FA83F503FA05F405
:1002900024FA05F65E4012BF1643B2FA82F502FA5E
:1002A00005F4C5F120051EBF22FA05FC44EA0C0442
:1002B000203556EA044C4FEA144418BF641C4FF032
:1002C00000084FF00009904271EB030C39D300296C
:1002D00019BFB1FA81F701FA07F6B0FA80F700FA10
:1002E00007F6C7F120071EBF20FA07FC46EA0C06F6
:1002F0002037B6FBF4FCA7EB0507103F07F01F0BF8
:10030000CBF120062CFA06F60CFA0BFB44BFB346E1
:100310000026202FA4BF5E464FF0000B5BEA060CC0
:1003200008BF4FF0010B19EB0B0948EB0608ABFBBC
:10033000027C06FB02CC0BFB03CCC01B71EB0C0157
:10034000C1E70B46024641464846BDE8F08B13B56F
:10035000084318BF4FF0FF300146AFF30080BDE8FF
:100360001C4070474FF0000200B513469446964675
:10037000203922BFA0E80C50A0E80C50B1F12001B8
:10038000BFF4F7AF090728BFA0E80C5048BF0CC066
:100390005DF804EB890028BF40F8042B08BF7047C4
:1003A00048BF20F8022B11F0804F18BF00F8012B36
:1003B0007047704770477047754600F02BF8AE469F
:1003C00005006946534620F00700854618B020B561
:1003D000FFF73EFFBDE820404FF000064FF000075A
:1003E0004FF000084FF0000BAC46ACE8C009ACE899
:1003F000C009ACE8C009ACE8C00921F007018D468E
:10040000704710B50446AFF300802046BDE81040A9
:10041000FFF709BF0048704710000020014918206D
:10042000ABBEFEE72600020070470000FEE70000BA
:1004300070470000B0B5044600F0F2F8054640F2FF
:100440000400C2F200000078611C18BF044400BF21
:1004500000F0E6F8401BA042FAD3B0BD2DE9F04F02
:1004600082B000F13E4241F2000502F1FF77C4F292
:100470000205072243F6004E4FEAB726A84208BFFE
:100480000422C4F2010E042E38BF4FEAB722012520
:10049000002600274FF00008009208E008F101084C
:1004A0000437B8F1100F06F1020600F0A7800C68BF
:1004B00005FA08F914EA090FF0D0D1F804B00322C4
:1004C0000BF0030CACF10104B240012C6FEA020AFC
:1004D00010D88268CC6802EA0A02B44022438260E3
:1004E0004268CBF3001422EA090204FA08F422431A
:1004F000426005E0BCF1030F02D14FF0030C20E095
:10050000C2688C6802EA0A02B4402243BCF1020FBE
:10051000C26016D16FF0030202EA58020244D2F818
:1005200020C007F01C050F230C69AB402CEA030325
:1005300004FA05F52B431362D1F804B001250BF042
:10054000030C02680CFA06F302EA0A021A431BF4CF
:10055000403F0260A2D0002243F644030192C4F25D
:1005600002031A684FF6084C42F480421A601A6877
:10057000CFF6FF7C02F480420192019A28F0030238
:10058000724452F80C3007F00C050F24AC40A34322
:10059000009C04FA05F52B4342F80C30DEF80820E5
:1005A0004B6842EA090543F60C4CDC0258BF22EACC
:1005B0000905CEF80850C4F2010CDCF800209C02BA
:1005C00042EA090558BF22EA0905CCF80050DEF8D6
:1005D00004209C0342EA090558BF22EA0905CEF827
:1005E0000450DEF80020DB0342EA090558BF22EA86
:1005F0000905CEF80050012550E700BF02B0BDE864
:10060000F08F0000426902EA0103914341EA03418D
:1006100081617047002A08BF0904816170470000AA
:1006200040F21020C2F200000068704740F204005F
:1006300040F21021C2F20000C2F2000100780A6804
:10064000104408607047000080B543F60040C4F2D3
:100650000200016841F400710160016841F48061A9
:100660000160016841F480710160032000F088F8A6
:100670000F2000F005F800F027F8002080BD0000F2
:1006800070B540F20406C2F2000640F20C01327866
:10069000C2F200014FF47A730968B3FBF2F2044628
:1006A000B1FBF2F1084600F06FFF0F2C4FF001058F
:1006B00008D838B94FF0FF3021460022002500F05D
:1006C00033F87460284670BD82B0002043F64001C4
:1006D0000190C4F202014A6842F480424A604A68CA
:1006E00002F480420192019A0090086840F0805024
:1006F0000860086800F080500090009802B07047D1
:10070000002848BF7047C1B200F01F00012202FA62
:1007100000F04EF20012CEF2000242EAD10121F0C6
:10072000030108607047000010B54EF60C5CCEF275
:10073000000CDCF80030C3F3022E8EF00704042C0A
:1007400028BF0424BEF103034FF0FF3E0EFA04F469
:1007500038BF0023A14399400EFA03F39A43114393
:1007600000F00F0200F160430901043A03F564430D
:100770006244002848BF02F10C03197010BD00004C
:100780004EF60C51CEF200010A684FF6FF031A40F4
:1007900060F30A2242F0806040F0FD70086070470C
:1007A0002DE9F041002800F08B8043F60808C4F2E0
:1007B00002080446D8F8F8030D4600F00700884206
:1007C00007D288F8F853D8F8F80300F00700A842D9
:1007D00076D12068810717D5410705D5D8F80010D4
:1007E00041F4E051C8F80010010705D5D8F8001011
:1007F00041F46041C8F80010D8F80010A26821F058
:10080000F0011143C8F80010C0073FD1D8F8F80331
:1008100000F00700A84207D988F8F853D8F8F80381
:1008200000F00700A8424BD12068410707D5D8F84F
:100830000010E26821F4E0511143C8F800100007ED
:1008400008D5D8F80000216920F4604040EAC100D2
:10085000C8F8000000F068F8D8F8001042F66A0204
:10086000C1F30311C0F60002515C40F20C0220FA01
:1008700001F140F20800C2F200000068C2F200027A
:100880001160FFF7FDFE0020BDE8F0816068811E69
:10089000022907D258F8081C89015CBF0120BDE875
:1008A000F08111E0012807D158F8081C89035CBFCA
:1008B0000120BDE8F08107E058F8081C890703D43F
:1008C0000120BDE8F08100BFD8F8001021F003013D
:1008D0000843C8F80000FFF7A3FE064641F2883738
:1008E000D8F80000616800F00C00B0EB810F8DD0EB
:1008F000FFF796FE801BB842F2D90320BDE8F081D5
:1009000040F20C0043F60801C2F20000C4F20201FA
:100910000068096842F67A02C1F38221C0F600023B
:10092000515CC8407047000010B543F60404C4F29F
:100930000204606800F00C0008280BD0042819BFDE
:1009400042F20040C0F2F40047F64000C0F27D10D1
:1009500010BD00BF206821682368490247F64001A6
:10096000C0F27D1100F03F02C3F388105CBF42F279
:100970000041C0F2F401A1FB00010023FFF77AFC63
:1009800021680222C1F3014102EB4101B0FBF1F009
:1009900010BD00002DE9F04182B0002868D0044667
:1009A000007843F60006C007C4F202060BD0B06818
:1009B00000F00C00042840F09F803068800302D5CE
:1009C0006068002854D0207880071AD5B06810F0ED
:1009D0000C0F09D0B06800F00C00082840F0A68089
:1009E0007068400200F1A2803068800702D5E0689C
:1009F00001283DD13068216920F0F80040EAC100AB
:100A000030602078000737D4207840074CD4A5699F
:100A100055B3B06800F00C00082840F0BB80012DF1
:100A200026D07068E16900F480028A4220D1216AF0
:100A300000F03F028A421BD147F6C071626A014052
:100A4000B1EB821F14D1A16A4FF6FF73C90399431A
:100A500000F44032A1F580318A4209D1E16A00F008
:100A60007060B0EB016F03D1002002B0BDE8F081EF
:100A7000012002B0BDE8F0816069002840F200006A
:100A8000C4F2472076D00121C0F8801EFFF7C8FDD0
:100A9000054600BF706F8007B6D4FFF7C1FD401B4D
:100AA0000228F7D9DDE000BF306C10F080580AD181
:100AB00000200190306C40F080503064306C00F0C9
:100AC00080500190019847F20007C4F2000738688F
:100AD000C00541D4386840F480703860FFF7A0FD4D
:100AE000054600BF3868C00536D4FFF799FD401BA6
:100AF0000228F7D9B5E000BFB06800F00C00082864
:100B000003D1706840023FF558AF6068B0F5803F90
:100B100007D0B0F5A02F40F08D80306840F48020E1
:100B20003060306840F4803030608DE0E06800284C
:100B300052D00020C4F2472001210160FFF770FD70
:100B4000054600BF306880073FF554AFFFF768FDEA
:100B5000401B0228F6D984E0A068012805D00528AA
:100B60004ED1306F40F004003067306F40F001002C
:100B700030674FE00021C0F8801EFFF751FD0546A9
:100B8000706F80077FF540AFFFF74AFD401B0228DA
:100B9000F6D966E00027C4F2472700203866FFF741
:100BA0003FFD022D05460BD1306880015ED5FFF771
:100BB00037FD401B02284FF00300F5D955E700BF71
:100BC000306880017FF550AFFFF72AFD401B0228F7
:100BD0004FF00300F4D948E70020C4F24720002179
:100BE0000160FFF71DFD0546306880077FF509AFFE
:100BF000FFF716FD401B02284FF00300F4D934E73D
:100C0000316F002821F001013167316F21F00401BB
:100C100031674DD0FFF704FD054641F2883700BF2C
:100C2000306F800756D4FFF7FBFC401BB842F7D962
:100C300017E000BF3168002821F48031316031684D
:100C400021F4802131604FD0FFF7EAFC054600BF58
:100C5000306880033FF5B7AEFFF7E2FC401B642825
:100C6000F6D9032002B0BDE8F08100BF04F11C05F5
:100C70002FCD084340EA8210D9034FF6FF7291430B
:100C8000A1F5803140EA05600843706001203866B4
:100C9000FFF7C6FC044600BF306880013FF5E4AEB4
:100CA000FFF7BEFC001B02284FF00300F4D9DCE67E
:100CB000FFF7B6FC054641F2883700BF306F80076A
:100CC00008D5FFF7ADFC401BB8424FF00300F5D943
:100CD000CBE600BFB8F1000F7FF499AE306C20F086
:100CE0008050306493E600BFFFF79AFC054600BFD2
:100CF000306880037FF567AEFFF792FC401B6428E5
:100D00004FF00300F4D9B0E670B538B10446406A3C
:100D100030B10020206104F1140007E0012070BD13
:100D20006068B0F5827F03D004F11C0000210160EF
:100D30000026A66294F8510020B9204684F850603D
:100D400000F03CF8022084F8510094E80F0001F410
:100D50008271056802F4044225F0400505601144E3
:100D600003F400622369114403F002026369114431
:100D700003F00102A369E569114403F40072114410
:100D800005F03802256A114405F08002A56A114376
:100D900005F4005211430160626A042101EA134123
:100DA00002F0100211444160C16921F40061C16187
:100DB0000120666584F85100304670BD80B586B06C
:100DC000016843F20000C4F20100814202D006B083
:100DD00080BD00BF002143F630020191C4F202023F
:100DE000536900F5504043F480535361536903F451
:100DF00080530193019B0191136843F00103136039
:100E0000126802F001020192019AF022019202227C
:100E1000CDE90221032104910521059101A9FFF7E4
:100E20001DFB06B080BD00002DE9F04381B00446F3
:100E300040681D461746B0F5827F0E4601D1A06876
:100E4000E0B394F85000012804D1022001B0BDE8BD
:100E5000F08300BF4FF0010984F85090FFF7E0FBEA
:100E600094F85110012927D18046002E4FF001003F
:100E700018BF002F00F0C9800420002184F8510021
:100E80006165A663A787E7872163A186E186A268DB
:100E90002068B2F5004F216461644BD001684906B7
:100EA00053D5E168E08F002957D0002800F08680F4
:100EB000681C1CD12DE000BF0220A6E0042084F8AD
:100EC00051002046314632463B46009500F0D0F9AD
:100ED00001B0BDE8F08300BFC068A16B21F8020B30
:100EE000A163E08F0138E087E08F002866D020689A
:100EF0008168C907F0D1FFF793FBA0EB0800A84277
:100F0000F2D3032081E000BFFFF78AFBE08F0028C7
:100F100054D020688168C907F6D0C068A16B21F859
:100F2000020BA163E08F0138E087E08F0028F0D149
:100F300044E000BF016821F040010160016821F434
:100F40008041016001684906ABD4016841F040016D
:100F50000160E168E08F0029A7D178B3681C0CD14B
:100F60001CE000BF007BA16B0870A06B0130A06388
:100F7000E08F0138E087E08F00B320688168C907FF
:100F8000F0D1FFF74DFBA0EB0800A842F3D30320FC
:100F90003BE000BFFFF744FBE08F78B12068816839
:100FA000C907F7D0007BA16B0870A06B0130A0636C
:100FB000E08F0138E087E08F0028EFD16068B0F55E
:100FC000827F0ED1A068B0F5004F02D0B0F5806FDF
:100FD0000AD12168B0F5806F0A6822F040020A60E9
:100FE00002D12046012101E0204680212A464346C5
:100FF00000F0FEFB28B1606D40F02000606520200D
:101000006065606D002818BF0120002184F85190B0
:1010100084F8501001B0BDE8F08300002DE9F043E2
:1010200083B0044690F85000012803D1022003B099
:10103000BDE8F0834FF001091D4616460F4684F8BF
:101040005090FFF7EDFA94F85110012944D18046F1
:10105000002F4FF0010018BF002E00F0D6800320B3
:10106000002184F8510061652763A686E686A163A6
:10107000A187E187A0682164B0F5004F2068616412
:1010800007D1016821F040010160016841F480410D
:1010900001600168490603D4016841F04001016024
:1010A0006168731EE268B1FA81F1B3FA83F349090A
:1010B0005B09B2F5006F41EA03013DD131B137F868
:1010C000021BC1602763E08E0138E086E08E0028B5
:1010D0006CD0681C0DD11EE0022096E0216B31F827
:1010E000022BC2602163E08E0138E086E08E00288A
:1010F0005CD0206881688907F0D4FFF791FAA0EBF3
:101100000800A842F2D303207FE000BFFFF788FA6F
:10111000E08E00284AD0206881688907F6D5216BC7
:1011200031F8022BC2602163E08E0138E086E08E48
:101130000028F0D13AE000BF39B139780173206B53
:1011400001302063E08E0138E086E08E70B3681CC9
:101150000BD11BE0216B09780173206B01302063F8
:10116000E08E0138E086E08E00B320688168890750
:10117000F0D4FFF755FAA0EB0800A842F3D3032000
:1011800043E000BFFFF74CFAE08E78B12068816839
:101190008907F7D5216B09780173206B0130206333
:1011A000E08E0138E086E08E0028EFD140F20C009E
:1011B000C2F20000006849F68171C1F25E61A0FBD5
:1011C0000101480D4FF47A71484302906068B0F510
:1011D000827F23D1204680212A46434600F008FB27
:1011E00028B1606D40F02000606520206065A06837
:1011F00038B9002001902068C16801918068019091
:101200000198606D002818BF0120002184F85190DA
:1012100084F8501003B0BDE8F08300BF02980028A6
:10122000E5D0029801380290206880680006DED57B
:1012300002980028DBD0029801380290206880686C
:101240000006D4D502980028D1D002980138029027
:10125000206880680006CAD502980028C7D0029886
:1012600001380290206880680006D7D4BFE70000EC
:101270002DE9F04383B0044690F85000012803D1D3
:10128000022003B0BDE8F08301201E4615460F463C
:1012900084F85000FFF7C4F994F8511081460129F1
:1012A00040F09880002F4FF0010018BF002D00F093
:1012B0009E80002E00F09B8094F8510000210428AD
:1012C0001CBF052084F851006165A563E687A687E9
:1012D0002763E6862068A686216461640168490662
:1012E00003D4016841F0400101606168731EE26847
:1012F000B1FA81F1B3FA83F3DDF8288049095B097B
:10130000B2F5006F41EA03017AD131B137F8021B1F
:10131000C1602763E08E0138E086012518F10100E5
:1013200031D101E0FFF77CF9E08E18B9E08F002899
:1013300000F0D0802068816889070CD5E18E51B11A
:10134000012D08D1216B002531F8022BC2602163E9
:10135000E18E0139E1868168C907E3D0E18F002978
:10136000E0D0C068A16B012521F8020BA163E08FDA
:101370000138E087D6E700BFFFF752F9A0EB09007C
:10138000404580F0FD80E08E18B9E08F002800F025
:10139000A1802068816889070CD5E18E51B1012DAB
:1013A00008D1216B002531F8022BC2602163E18E48
:1013B0000139E1868168C907DED0E18F0029DBD0E1
:1013C000C068A16B012521F8020BA163E08F0138F1
:1013D000E087D1E76068B0F5827F07D1A068002878
:1013E0004FF0020008BF042901D15BE70220012170
:1013F00084F85110002184F8501003B0BDE8F08348
:1014000039B139780173206B01302063E08E0138E7
:10141000E086012518F1010033D101E0FFF700F962
:10142000E08E10B9E08F002854D0206881688907C9
:101430000ED5E18E61B1012D0AD1216B002509780D
:101440000173216B206801312163E18E0139E1864E
:101450008168C907E2D0E18F0029DFD0C068A16BA5
:1014600001250870A06B0130A063E08F0138E08790
:10147000D4E700BFFFF7D4F8A0EB0900404580F0A7
:101480008180E08E08B9E08F20B3206881688907E9
:101490000ED5E18E61B1012D0AD1216B00250978AD
:1014A0000173216B206801312163E18E0139E186EE
:1014B0008168C907DED0E18F0029DBD0C068A16B4D
:1014C00001250870A06B0130A063E08F0138E08730
:1014D000D0E700BF40F20C00C2F20000006849F6FD
:1014E0008171C1F25E61A0FB0101480D4FF47A7178
:1014F000484302906068B0F5827F0FD1204680217A
:1015000042464B4600F074F960B3606D40F0200035
:10151000606520206065012069E700BF029808B37C
:101520000298013802902068806800061AD5029857
:10153000C0B102980138029020688068000611D579
:10154000029878B1029801380290206880680006FD
:1015500008D5029830B1029801380290206880685E
:101560000006DBD4A06800284FF000007FF43FAFF6
:1015700001902168CA68019289680191019936E752
:10158000032034E7032032E7411E0020B0EB116F47
:101590001CBF012070474EF21002CEF200025160D3
:1015A0004EF62351CEF20001F0230B70072190601C
:1015B00011607047002804BF0120704710B5044631
:1015C00090F83D0028B9002084F83C00204600F047
:1015D0008FF8022084F83D00206840F2FF73026813
:1015E000C4F2000340F2000C9842C4F2010C1DDD6D
:1015F00040F60001C4F20001884220D060451ED0B0
:1016000040F60041C4F20001884218D04FF6FF7145
:10161000C4F2000188421CDC984225DCB0F1804F06
:101620003AD040F20041C4F2000133E0B0F1804F03
:1016300005D040F20041C4F200018842E6D1A16821
:1016400022F070020A434FF6FF71C4F20001884293
:10165000E2DD44F2FF31C4F20101884210DC604552
:101660001AD044F2000113E040F60001C4F2000178
:10167000884211D040F60041C4F200010AE000BFE8
:1016800044F60001C4F20101884205D044F2004151
:10169000C4F20101884203D1216922F440720A4355
:1016A000A36922F08001D4F804E0E26819436045A0
:1016B0000160C262C0F828E002D16169CCF8301044
:1016C00001214161002084F8461084F83E1084F81E
:1016D0003F1084F8401084F8411084F8421084F8D8
:1016E000431084F8441084F8451084F83D1010BD70
:1016F00081B0006840F60041C4F20001884201D088
:1017000001B070470020009043F64000C4F2020090
:10171000016841F008010160006800F008000090D5
:10172000009801B07047000090F83D1001291CBFDF
:1017300001207047022180F83D10006840F6FF321A
:10174000C168C4F20002904241F00101C1600FDCA7
:10175000B0F1804F1DD040F20041C4F20001884238
:1017600017D040F60001C4F20001884211D017E002
:1017700040F60041C4F2000188420AD044F2000160
:10178000C4F20101884204D00021C4F20101884260
:1017900006D1816801F00701062904BF00207047C7
:1017A000016841F0010101600020704701460068B6
:1017B00041F21113026A1A4204D00122002081F87A
:1017C0003D207047026A40F244431A42F5D1026854
:1017D00022F0010202600122002081F83D207047C2
:1017E000FEE70000FEE70000FEE700007047000093
:1017F0002DE9F04182B01E4690460D460446FEF7A4
:101800000FFF301A00EB0807FEF70AFF40F20C0149
:10181000C2F200010968C1F3CB317943019121681B
:101820008A682A40AA4227D1064618F101001FD033
:10183000FEF7F6FE801BB84222D2019801990028DB
:10184000A1F1010101912168896808BF074601EAF9
:101850000500A842ECD00FE088682840A8420BD1D0
:1018600088682840A84207D188682840A84203D148
:1018700088682840A842EFD0002002B0BDE8F0817F
:10188000D4E900014268B1F5827F22F0E0024260B3
:101890000AD1A168B1F5004F02D0B1F5806F03D134
:1018A000016821F040010160A16AB1F5005F07D134
:1018B000016821F400510160016841F400510160A8
:1018C000012084F85100002084F85000032002B069
:1018D000BDE8F08170470000FEF7A8BE80B543F672
:1018E0000400C4F20200416801F00C0242F200411F
:1018F000082AC0F2F40107D0042A21D147F640019A
:10190000C0F27D111CE000BFD0F800C0036802687F
:1019100003F03F03C2F3881E5FEA4C2247F6400201
:10192000C0F27D1258BF0A46B2FBF3F102680223EF
:10193000C2F301420EFB01F103EB4202B1FBF2F1F3
:1019400040F20C02C2F200021160406842F66A03E3
:10195000C0F30310C0F60003185C21FA00F0106019
:1019600080BD00004EF68850CEF20000016841F4C0
:101970007001016070470000B0B51025C4F2000589
:101980002868C00708BFB0BD40F27000C2F2000076
:101990000179013904290DD8DFE801F00412262C61
:1019A0003A0000BF40F20000C2F20000417881F02E
:1019B00001014170286820F001002860B0BD00BF1F
:1019C00040F60004C4F20204204640F6FF71FEF720
:1019D00019FE20464FF48061FEF714FE286820F0BF
:1019E00001002860B0BD00BFC17809B300220189A1
:1019F000C27020E040F20000C2F20000017881F0E5
:101A000001010170286820F001002860B0BD00BF0E
:101A1000817881F001018170408A40F60001C4F2B2
:101A200002014861286820F001002860B0BD00BFB5
:101A30000121C1700021416200210181286820F04C
:101A400001002860B0BD000070B540F20044C4F24F
:101A5000020440F2104520464FF40051C4F2000544
:101A6000FEF7D0FDFEF74CFF40F61401C4F2020170
:101A70000860286840F27006C007C2F200060BD06A
:101A8000707848B12868402120F0010028600120CA
:101A900030702046FEF7B6FD0120707070BD00006A
:101AA00040F27000C2F200008278418A4FF49673CF
:101AB000002A04BF4FF6D463CFF6FF73CA1893B25F
:101AC0005B1A818248BF5B42B3F5967F88BF0A46A6
:101AD000428240F61000C4F20000016821F00101CA
:101AE00001607047FEE700002DE9F04F83B000264B
:101AF00043F640050296C4F2020528684EF200182B
:101B000040F001002860286840F2700700F00100F2
:101B100002900298CEF200084FF08050C2F2000707
:101B200088F81C63C8F800004FF080403C4644F839
:101B3000280F54F8080C48F2A061C0F2010191FB93
:101B4000F0F040F20C0901384F21C4E9030680206F
:101B5000C4F20009C4E90116A061D9F8000040F000
:101B60000100C9F800002046FFF724FD2046FFF7DA
:101B7000DBFD0196286840F69F7240F00200286065
:101B8000286840F2381500F00200019001984EF2EA
:101B90001D40CEF2000006704FF00050C8F8000063
:101BA00054F80C1C09F57D70C2F20005890085E827
:101BB0004500C5E90316AE61D9F8000440F0010004
:101BC000C9F800042846FFF7F5FC2846FFF7ACFDEE
:101BD0004FF6006A45F6C52B47F2456642F62C18CB
:101BE00048F64B29C0F2FF7AC0F67C2B6FF0010457
:101BF0004FF6FE75C0F20406CAF2B238CCF6EC0914
:101C000003E000BF3878002840D140F20040C4F221
:101C100002004FF48061FEF7F5FC0C20C4F20000D6
:101C20008069396A48430AEA4020A0FB0B0104EAB4
:101C3000911005EA911141F480428A4208BF404266
:101C4000C0F34D0000FB06F1490B4143A8EBD10165
:101C5000490B4143490B4143A9EB5101490B48430F
:101C60003A8A00F58021080DC2EB11510029F88154
:101C700048BF494209094A29C4D840F6140200F570
:101C8000FF61C4F2020211603882BBE707F128004D
:101C9000FFF78CFD40F23810C2F20000FFF786FD1E
:101CA00040F2C810C2F2000003B0BDE8F04FFFF7E9
:101CB0007DBD000092B043F6300747F2000BC4F23E
:101CC0000207C4F2000BFEF7BFFC00260696386838
:101CD00040F001003860386800F001000690069876
:101CE0000696386840F002003860386800F002005C
:101CF000069006980696386840F004003860386808
:101D000000F0040006900698FFF7E8FD06AC251DDC
:101D100028462C21FEF726FB0596CDE90366CDE982
:101D2000016600963869022140F0805038613869B8
:101D300000F08050009000980096DBF8000061F3FE
:101D40008F30CBF80000DBF8000000F4404000903A
:101D500000980120099010200A90204606910C96C8
:101D6000FEF718FE20B1EFF3108072B6FEE700BF59
:101D70000F20CDE9010601A80021CDE903660596F3
:101D8000FEF70EFD20B1EFF3108072B6FEE700BF44
:101D900028462C21FEF7E6FA00250595CDE90355E6
:101DA000CDE9015500953869022140F08050386135
:101DB000386900F08050009000980095DBF8000032
:101DC00061F38F30CBF80000DBF8000000F44040F6
:101DD000009000980120099010200A90204606915A
:101DE0000C95FEF7D7FD28B1EFF3108072B600BF57
:101DF000FEE700BF0F20CDE9010501A80021CDE9D4
:101E000003550595FEF7CCFC20B1EFF3108072B6B8
:101E1000FEE700BF4FF0000ACDF818A038680BF5B8
:101E2000C83440F004003860386806AE00F00400A2
:101E300006900698CDF818A0386840F6140540F0D2
:101E40000100386038684FF0020800F00100069089
:101E50000698CDF818A038684FF0030940F002004A
:101E600038603868314600F0020006900698CDF8D8
:101E700018A03868C4F2020540F0080038603868DD
:101E8000052700F0080006900698202006902046BE
:101E9000CDE9078ACDF824900A97FEF7DFFA4020B3
:101EA00006A981E8010520463146CDE90997FEF7EC
:101EB000D5FA802006A981E8010505F57B70314639
:101EC000CDE909974FF08009FEF7C8FA43F2C14007
:101ED0000BF5CA340690012720463146CDE9077A32
:101EE000CDF82480FEF7BAFA4FF6FF7006A981E814
:101EF00081040BF5CC303146CDF82480FEF7AEFAE4
:101F0000CDF818904FF48819204631468027CDE946
:101F10000798FEF7A3FACDE9067943F63009204683
:101F20003146C4F20209CDF82080FEF797FA172057
:101F300000210022FEF7F8FB1720FEF7E1FBCDF8A9
:101F400018A0D9F8140040F2E00640F48050C9F817
:101F50001400D9F81400C2F2000600F48050069074
:101F600006980BF540403060301D2821FEF7FAF945
:101F70000A20F0623046FEF7C7FE28B1EFF310806A
:101F800072B600BFFEE700BF40F2240840F27006C0
:101F900040F2E00942F6635BC4F20008C2F20006B8
:101FA000C2F20009C0F23E5B19E000BF01208DF8CB
:101FB000180020460121FEF725FB0120FEF73AFA22
:101FC00040F2E009C2F20009484606A901224FF09A
:101FD000FF33FFF723F820460121FEF713FB40F201
:101FE0000000C2F200004FF48071018006F116017A
:101FF000484603224FF0FF33C6F808A0A6F80CA00D
:10200000A6F804A086F806A0C6F80EA0C6F812A08E
:10201000C6E907AAC6F824A0C6F800A0FEF704FF88
:10202000B07D327EF17D3071B2714FF4FA735F276B
:1020300002EB82020138717111FB07315200052851
:10204000F1613262B2D8DFE810F00B000F008B00B4
:10205000170107001B0100BF00F048FAA6E700BF08
:1020600000F04AF9A2E700BF43F63007C5F800A028
:10207000CDF818A0C4F2020738694EF2001140F002
:10208000010038613869CEF2000100F001000690CD
:1020900006984FF0805081F81CA30860B1464FF0BD
:1020A000804049F8280F59F8080C48F2A062C0F2A5
:1020B000010292FBF0F0802101384F22C9E9012A88
:1020C000C9E9030AC9F8181058F8180C40F00100C3
:1020D00048F8180C4846FFF76DFA4846FFF724FB0E
:1020E000CDF818A038694EF2001140F002003861B6
:1020F0003869CEF2000100F00200069006984EF218
:102100001D40CEF2000080F800A04FF000500860A3
:1021100059F80C0C40F2381708F57771C2F2000735
:102120008000396040F69F71C7E9011AC7E9030AC8
:10213000C7F818A0D8F8E80340F00100C8F8E80391
:102140003846FFF737FA3846FFF7EEFA20464FF4E5
:102150008061FEF757FA30780028F7D084E000BF9E
:1021600043F63009CDF818A0C4F20209D9F81000DE
:102170004EF2001140F00100C9F81000D9F810002B
:10218000CEF2000100F00100069006984FF080505A
:1021900081F81CA30860306A48F2A062C0F2010214
:1021A00092FBF0F037464FF08042802147F8282F0D
:1021B00001384F22C6E90B2AC6E90D0A316458F8E6
:1021C000180C40F0010048F8180C3846FFF7F2F9F7
:1021D0003846FFF7A9FACDF818A0D9F810004EF24A
:1021E000001140F00200C9F81000D9F81000CEF23A
:1021F000000100F00200069006984EF21D40CEF25B
:10220000000080F800A04FF000500860F06940F234
:10221000381708F57771C2F200078000396040F680
:102220009F71C7E9011AC7E9030AC7F818A0D8F8CF
:10223000E80340F00100C8F8E8033846FFF7BAF9B0
:102240003846FFF771FA3078F0B1D8F80000316AFB
:102250004843C0EB00308009A0FB0B01706A8A097B
:1022600000EB91103281286006F12800FFF79EFAFA
:102270003846FFF79BFA99E600F026FA96E600BF8B
:10228000FFF732FC92E600BFD8F80000D6E908124A
:102290004843C0EB00308009A0FB0B0102EB91101A
:1022A0002860D8F80000D6E908124843C0EB003097
:1022B0008009A0FB0B0102EB91102860D8F8000008
:1022C000D6E908124843C0EB00308009A0FB0B019F
:1022D00002EB91102860D8F80000316A4843C0EB47
:1022E00000308009A0FB0B01706A8A0900EB911095
:1022F00032812860C8E700002DE9F04F83B0002745
:1023000043F640060297C4F2020630684EF2001807
:1023100040F001003060306840F2700900F00100C8
:1023200002900298CEF200084FF08050C2F20009ED
:1023300088F81C73C8F800004FF080404C4644F801
:10234000280F54F8080C48F2A061C0F2010191FB7B
:10235000F0F040F20C0A01384F21C4E90307802055
:10236000C4F2000AC4E90117A061DAF8000040F2E3
:10237000004540F00100CAF800002046C4F2020502
:10238000FFF718F92046FFF7CFF90197306840F6BC
:102390009F7240F002003060306800F0020001904F
:1023A00001984EF21D40CEF2000007704FF0005031
:1023B000C8F8000054F80C1C40F238180AF57D707B
:1023C000C2F20008890088E88500C8E90317C8F848
:1023D0001870DAF8000440F00100CAF80004404622
:1023E000FFF7E8F84046FFF79FF94FF6006B45F618
:1023F000C52847F2456442F62C1A48F64B2740F2AE
:102400000006C0F2FF7BC0F67C28C0F20404CAF2CA
:10241000B23ACCF6EC07C2F2000603E099F80000ED
:10242000002855D128464FF48061FEF7EBF80C20C8
:10243000C4F200008069D9F820104FF6FE724843BC
:102440000BEA4020A0FB08016FF0010000EA9110A8
:1024500002EA911141F480428A4208BF4042C0F32F
:102460004D0000FB04F1490B4143AAEBD101490B9C
:102470004143490B4143A7EB5101490B484300F548
:1024800080207278010D002A4FF0000308BFA3EBF3
:10249000105101F50060A9F80E0028468021FEF7D2
:1024A000B9F8B9F80E0040F6F9718842BAD8B9F80F
:1024B0001010411A48BF494209094A29AED840F6CE
:1024C0001401C4F202010860A9F81000A6E700BFD9
:1024D00009F12800FFF76AF940F23810C2F2000053
:1024E00003B0BDE8F04FFFF761B900002DE9F04FF0
:1024F00083B040F27006C2F20006002743F640099E
:10250000B7820197C4F20209D9F800004EF2001A0E
:1025100040F00100C9F80000D9F80000CEF2000A2E
:1025200000F00100019001984FF080508AF81C7370
:10253000CAF800004FF08040344644F8280F54F8A1
:10254000080C48F2A061C0F2010191FBF0F04F21AC
:102550000138C4E90307802040F20C0BC4E90117DD
:10256000A061C4F2000BDBF8000040F00100CBF8E2
:1025700000002046FFF71EF82046FFF7D5F8009729
:10258000D9F800004EF21D4840F00200C9F80000E2
:10259000D9F80000CEF2000800F002000090009888
:1025A0004FF0005088F80070CAF8000054F80C1C76
:1025B00040F238150BF57D70C2F20005890040F637
:1025C0009F7285E88500C5E90317AF61DBF8000459
:1025D00040F00100CBF800042846FEF7EBFF284648
:1025E000FFF7A2F80297D9F8000040F60C0340F07C
:1025F0000400C9F80000D9F80000C4F2000300F09C
:102600000400029002984FF0804088F80170CAF8E8
:10261000000054F8080C19681A461D4648F2A063D9
:10262000C0F2010393FBF0F041F0010142F80C19F4
:10263000C11740F2801400EB51704FF0FF31C2F22D
:10264000000401EBE000C4E9030780204F21A061F2
:1026500020462260C4E90117FEF7ACFF2046FFF7D1
:1026600063F805F5FC3040F6140500F57D74C4F2FE
:10267000020501E0307898B920464FF48061FDF7FB
:10268000C1FFB18A708A091A48BF494289087C296A
:10269000F0D82860204680210022FDF7BBFFE9E743
:1026A00006F12800FFF782F840F23810C2F200006D
:1026B000FFF77CF840F28010C2F2000003B0BDE8E2
:1026C000F04FFFF773B800002DE9F04782B04FF0EC
:1026D000000943F64007CDF80490C4F202073868B9
:1026E0004EF2001840F001003860386840F2700582
:1026F00000F0010001900198CEF200084FF08050E8
:10270000C2F2000588F81C93C8F800004FF0804022
:102710002E4646F8280F56F8080C48F2A061C0F281
:10272000010191FBF0F040F20C0A01384F21C6E99B
:1027300003098020C4F2000AC6E90119B061DAF881
:10274000000040F2004440F00100CAF800003046AA
:10275000C4F20204FEF72EFF3046FEF7E5FFCDF887
:102760000090386840F69F7240F002003860386888
:1027700000F00200009000984EF21D40CEF20000E2
:1027800080F800904FF00050C8F8000056F80C1C7C
:1027900040F238180AF57D70C2F20008890088E816
:1027A0000502C8E90319C8F81890DAF8000440F0E7
:1027B0000100CAF800044046FEF7FCFE4046FEF762
:1027C000B3FF40F2000845F6C52740F61409C2F2EF
:1027D0000008C0F67C2740F6FF76C4F2020900BF6D
:1027E00020464FF48061FDF70DFF98F80020DAF8DD
:1027F0001800296A002A01FB00F0C0EB00304FEA04
:102800005010A0FB07014FEAD11008BFA6EBD11072
:10281000688120468021FDF7FDFE6889A989411A5B
:1028200048BF4942C9084A299CBFC9F80000A8818D
:1028300028780028D4D005F12800FEF7B7FF40F231
:102840003810C2F2000002B0BDE8F047FEF7AEBF9C
:10285000F1EE100A4FF6FF71C0F2C03120EA01001C
:1028600040F04070E1EE100A7047000000000000E8
:10287000000001020304060708090000000001022D
:1028800003040000A8280008000000201000000039
:10289000D0010008B8280008100000200808000037
:1028A000EC01000800000000010100000100000030
:0828B000100000000024F400F8
:040000050800019559
:00000001FF
